{
  "abi": [
    {
      "type": "constructor",
      "inputs": [
        {
          "name": "threeDnsRegControl_",
          "type": "address",
          "internalType": "contract IThreeDNSRegControl"
        },
        {
          "name": "node_",
          "type": "bytes32",
          "internalType": "bytes32"
        }
      ],
      "stateMutability": "nonpayable"
    },
    {
      "type": "function",
      "name": "BASE_REGISTRATION_DURATION",
      "inputs": [],
      "outputs": [
        {
          "name": "",
          "type": "uint64",
          "internalType": "uint64"
        }
      ],
      "stateMutability": "view"
    },
    {
      "type": "function",
      "name": "CHAIN_ID",
      "inputs": [],
      "outputs": [
        {
          "name": "",
          "type": "uint64",
          "internalType": "uint64"
        }
      ],
      "stateMutability": "view"
    },
    {
      "type": "function",
      "name": "DOMAIN_NAME",
      "inputs": [],
      "outputs": [
        {
          "name": "",
          "type": "string",
          "internalType": "string"
        }
      ],
      "stateMutability": "view"
    },
    {
      "type": "function",
      "name": "DOMAIN_SEPARATOR",
      "inputs": [],
      "outputs": [
        {
          "name": "",
          "type": "bytes32",
          "internalType": "bytes32"
        }
      ],
      "stateMutability": "view"
    },
    {
      "type": "function",
      "name": "DOMAIN_VERSION",
      "inputs": [],
      "outputs": [
        {
          "name": "",
          "type": "string",
          "internalType": "string"
        }
      ],
      "stateMutability": "view"
    },
    {
      "type": "function",
      "name": "ETH_ADDRESS",
      "inputs": [],
      "outputs": [
        {
          "name": "",
          "type": "address",
          "internalType": "address"
        }
      ],
      "stateMutability": "view"
    },
    {
      "type": "function",
      "name": "MINT_SELECTOR",
      "inputs": [],
      "outputs": [
        {
          "name": "",
          "type": "bytes4",
          "internalType": "bytes4"
        }
      ],
      "stateMutability": "view"
    },
    {
      "type": "function",
      "name": "MULTICALL_SELECTOR",
      "inputs": [],
      "outputs": [
        {
          "name": "",
          "type": "bytes4",
          "internalType": "bytes4"
        }
      ],
      "stateMutability": "view"
    },
    {
      "type": "function",
      "name": "NODE",
      "inputs": [],
      "outputs": [
        {
          "name": "",
          "type": "bytes32",
          "internalType": "bytes32"
        }
      ],
      "stateMutability": "view"
    },
    {
      "type": "function",
      "name": "Permit2Approval",
      "inputs": [
        {
          "name": "token_",
          "type": "address",
          "internalType": "contract IERC20Upgradeable"
        },
        {
          "name": "from_",
          "type": "address",
          "internalType": "address"
        },
        {
          "name": "amount_",
          "type": "uint256",
          "internalType": "uint256"
        },
        {
          "name": "deadline_",
          "type": "uint256",
          "internalType": "uint256"
        },
        {
          "name": "permitSig_",
          "type": "bytes",
          "internalType": "bytes"
        }
      ],
      "outputs": [],
      "stateMutability": "nonpayable"
    },
    {
      "type": "function",
      "name": "Permit2Approval",
      "inputs": [
        {
          "name": "paymentType_",
          "type": "uint8",
          "internalType": "enum Datastructures.PaymentType"
        },
        {
          "name": "from_",
          "type": "address",
          "internalType": "address"
        },
        {
          "name": "amount_",
          "type": "uint256",
          "internalType": "uint256"
        },
        {
          "name": "deadline_",
          "type": "uint256",
          "internalType": "uint256"
        },
        {
          "name": "permitSig_",
          "type": "bytes",
          "internalType": "bytes"
        }
      ],
      "outputs": [],
      "stateMutability": "nonpayable"
    },
    {
      "type": "function",
      "name": "SP2A_SELECTOR",
      "inputs": [],
      "outputs": [
        {
          "name": "",
          "type": "bytes4",
          "internalType": "bytes4"
        }
      ],
      "stateMutability": "view"
    },
    {
      "type": "function",
      "name": "SponsorPermit2Approval",
      "inputs": [
        {
          "name": "token_",
          "type": "address",
          "internalType": "contract IERC20Upgradeable"
        },
        {
          "name": "from_",
          "type": "address",
          "internalType": "address"
        },
        {
          "name": "sponsor_",
          "type": "address",
          "internalType": "address"
        },
        {
          "name": "permitAmount_",
          "type": "uint256",
          "internalType": "uint256"
        },
        {
          "name": "permitFee_",
          "type": "uint256",
          "internalType": "uint256"
        },
        {
          "name": "deadline_",
          "type": "uint256",
          "internalType": "uint256"
        },
        {
          "name": "permitSig_",
          "type": "bytes",
          "internalType": "bytes"
        }
      ],
      "outputs": [],
      "stateMutability": "nonpayable"
    },
    {
      "type": "function",
      "name": "SponsorPermit2Approval",
      "inputs": [
        {
          "name": "paymentType_",
          "type": "uint8",
          "internalType": "enum Datastructures.PaymentType"
        },
        {
          "name": "from_",
          "type": "address",
          "internalType": "address"
        },
        {
          "name": "sponsor_",
          "type": "address",
          "internalType": "address"
        },
        {
          "name": "permitAmount_",
          "type": "uint256",
          "internalType": "uint256"
        },
        {
          "name": "permitFee_",
          "type": "uint256",
          "internalType": "uint256"
        },
        {
          "name": "deadline_",
          "type": "uint256",
          "internalType": "uint256"
        },
        {
          "name": "permitSig_",
          "type": "bytes",
          "internalType": "bytes"
        }
      ],
      "outputs": [],
      "stateMutability": "nonpayable"
    },
    {
      "type": "function",
      "name": "THREE_DNS_REGCONTROL",
      "inputs": [],
      "outputs": [
        {
          "name": "",
          "type": "address",
          "internalType": "contract IThreeDNSRegControl"
        }
      ],
      "stateMutability": "view"
    },
    {
      "type": "function",
      "name": "TYPED_DATA_SIGNATURE_TYPEHASH",
      "inputs": [],
      "outputs": [
        {
          "name": "",
          "type": "bytes32",
          "internalType": "bytes32"
        }
      ],
      "stateMutability": "view"
    },
    {
      "type": "function",
      "name": "addLabel",
      "inputs": [
        {
          "name": "node_",
          "type": "bytes32",
          "internalType": "bytes32"
        },
        {
          "name": "label_",
          "type": "string",
          "internalType": "string"
        },
        {
          "name": "status_",
          "type": "uint8",
          "internalType": "enum Datastructures.Status"
        }
      ],
      "outputs": [],
      "stateMutability": "nonpayable"
    },
    {
      "type": "function",
      "name": "addSet",
      "inputs": [
        {
          "name": "names_",
          "type": "string[]",
          "internalType": "string[]"
        }
      ],
      "outputs": [],
      "stateMutability": "nonpayable"
    },
    {
      "type": "function",
      "name": "bulkAddLabels",
      "inputs": [
        {
          "name": "node_",
          "type": "bytes32",
          "internalType": "bytes32"
        },
        {
          "name": "labels_",
          "type": "string[]",
          "internalType": "string[]"
        },
        {
          "name": "status_",
          "type": "uint8",
          "internalType": "enum Datastructures.Status"
        }
      ],
      "outputs": [],
      "stateMutability": "nonpayable"
    },
    {
      "type": "function",
      "name": "bulkRemoveLabels",
      "inputs": [
        {
          "name": "node_",
          "type": "bytes32",
          "internalType": "bytes32"
        },
        {
          "name": "labels_",
          "type": "string[]",
          "internalType": "string[]"
        }
      ],
      "outputs": [],
      "stateMutability": "nonpayable"
    },
    {
      "type": "function",
      "name": "clearLabels",
      "inputs": [
        {
          "name": "node_",
          "type": "bytes32",
          "internalType": "bytes32"
        }
      ],
      "outputs": [],
      "stateMutability": "nonpayable"
    },
    {
      "type": "function",
      "name": "getActionPremium",
      "inputs": [
        {
          "name": "node_",
          "type": "bytes32",
          "internalType": "bytes32"
        },
        {
          "name": "label_",
          "type": "string",
          "internalType": "string"
        },
        {
          "name": "action_",
          "type": "uint8",
          "internalType": "enum Datastructures.Action"
        }
      ],
      "outputs": [
        {
          "name": "quote",
          "type": "tuple",
          "internalType": "struct Datastructures.OrderPayment",
          "components": [
            {
              "name": "paymentType",
              "type": "uint8",
              "internalType": "enum Datastructures.PaymentType"
            },
            {
              "name": "amount",
              "type": "uint248",
              "internalType": "uint248"
            }
          ]
        }
      ],
      "stateMutability": "view"
    },
    {
      "type": "function",
      "name": "getDomainSeparator",
      "inputs": [],
      "outputs": [
        {
          "name": "",
          "type": "bytes32",
          "internalType": "bytes32"
        }
      ],
      "stateMutability": "view"
    },
    {
      "type": "function",
      "name": "getLabelCount",
      "inputs": [],
      "outputs": [
        {
          "name": "",
          "type": "uint256",
          "internalType": "uint256"
        }
      ],
      "stateMutability": "view"
    },
    {
      "type": "function",
      "name": "getPayoutAddress",
      "inputs": [
        {
          "name": "node_",
          "type": "bytes32",
          "internalType": "bytes32"
        }
      ],
      "outputs": [
        {
          "name": "",
          "type": "address",
          "internalType": "address"
        }
      ],
      "stateMutability": "view"
    },
    {
      "type": "function",
      "name": "getQuote",
      "inputs": [
        {
          "name": "quantity",
          "type": "uint256",
          "internalType": "uint256"
        },
        {
          "name": "paymentType_",
          "type": "uint8",
          "internalType": "enum Datastructures.PaymentType"
        }
      ],
      "outputs": [
        {
          "name": "quote_",
          "type": "tuple",
          "internalType": "struct Datastructures.OrderPayment",
          "components": [
            {
              "name": "paymentType",
              "type": "uint8",
              "internalType": "enum Datastructures.PaymentType"
            },
            {
              "name": "amount",
              "type": "uint248",
              "internalType": "uint248"
            }
          ]
        }
      ],
      "stateMutability": "view"
    },
    {
      "type": "function",
      "name": "getRestrictedStatus",
      "inputs": [
        {
          "name": "node_",
          "type": "bytes32",
          "internalType": "bytes32"
        },
        {
          "name": "labelHash_",
          "type": "bytes32",
          "internalType": "bytes32"
        }
      ],
      "outputs": [
        {
          "name": "",
          "type": "uint8",
          "internalType": "enum Datastructures.Status"
        }
      ],
      "stateMutability": "view"
    },
    {
      "type": "function",
      "name": "getSubdomainQuote",
      "inputs": [
        {
          "name": "node_",
          "type": "bytes32",
          "internalType": "bytes32"
        },
        {
          "name": "label_",
          "type": "string",
          "internalType": "string"
        },
        {
          "name": "desiredDuration_",
          "type": "uint256",
          "internalType": "uint256"
        },
        {
          "name": "paymentType_",
          "type": "uint8",
          "internalType": "enum Datastructures.PaymentType"
        }
      ],
      "outputs": [
        {
          "name": "currentStatus_",
          "type": "uint8",
          "internalType": "enum Datastructures.Status"
        },
        {
          "name": "nextAction_",
          "type": "uint8",
          "internalType": "enum Datastructures.Action"
        },
        {
          "name": "quoteDuration_",
          "type": "uint256",
          "internalType": "uint256"
        },
        {
          "name": "quote_",
          "type": "tuple",
          "internalType": "struct Datastructures.OrderPayment",
          "components": [
            {
              "name": "paymentType",
              "type": "uint8",
              "internalType": "enum Datastructures.PaymentType"
            },
            {
              "name": "amount",
              "type": "uint248",
              "internalType": "uint248"
            }
          ]
        }
      ],
      "stateMutability": "view"
    },
    {
      "type": "function",
      "name": "hasClaimedVoucher",
      "inputs": [
        {
          "name": "recipient_",
          "type": "address",
          "internalType": "address"
        }
      ],
      "outputs": [
        {
          "name": "",
          "type": "bool",
          "internalType": "bool"
        }
      ],
      "stateMutability": "view"
    },
    {
      "type": "function",
      "name": "initialize",
      "inputs": [
        {
          "name": "domainName_",
          "type": "string",
          "internalType": "string"
        },
        {
          "name": "domainVersion_",
          "type": "string",
          "internalType": "string"
        },
        {
          "name": "usdc_",
          "type": "address",
          "internalType": "contract IERC20Upgradeable"
        },
        {
          "name": "weth_",
          "type": "address",
          "internalType": "contract IWETH"
        }
      ],
      "outputs": [],
      "stateMutability": "nonpayable"
    },
    {
      "type": "function",
      "name": "isRestrictedLabel",
      "inputs": [
        {
          "name": "node_",
          "type": "bytes32",
          "internalType": "bytes32"
        },
        {
          "name": "labelHash_",
          "type": "bytes32",
          "internalType": "bytes32"
        }
      ],
      "outputs": [
        {
          "name": "",
          "type": "bool",
          "internalType": "bool"
        }
      ],
      "stateMutability": "view"
    },
    {
      "type": "function",
      "name": "isValidDuration",
      "inputs": [
        {
          "name": "node_",
          "type": "bytes32",
          "internalType": "bytes32"
        },
        {
          "name": "duration_",
          "type": "uint256",
          "internalType": "uint256"
        }
      ],
      "outputs": [
        {
          "name": "",
          "type": "bool",
          "internalType": "bool"
        }
      ],
      "stateMutability": "view"
    },
    {
      "type": "function",
      "name": "isValidLabel",
      "inputs": [
        {
          "name": "node_",
          "type": "bytes32",
          "internalType": "bytes32"
        },
        {
          "name": "label_",
          "type": "string",
          "internalType": "string"
        }
      ],
      "outputs": [
        {
          "name": "",
          "type": "bool",
          "internalType": "bool"
        }
      ],
      "stateMutability": "view"
    },
    {
      "type": "function",
      "name": "isValidMinter",
      "inputs": [
        {
          "name": "node_",
          "type": "bytes32",
          "internalType": "bytes32"
        },
        {
          "name": "minter_",
          "type": "address",
          "internalType": "address"
        }
      ],
      "outputs": [
        {
          "name": "",
          "type": "bool",
          "internalType": "bool"
        }
      ],
      "stateMutability": "view"
    },
    {
      "type": "function",
      "name": "mint",
      "inputs": [
        {
          "name": "quantity_",
          "type": "uint256",
          "internalType": "uint256"
        },
        {
          "name": "recipient_",
          "type": "address",
          "internalType": "address"
        },
        {
          "name": "permit_",
          "type": "bytes",
          "internalType": "bytes"
        }
      ],
      "outputs": [],
      "stateMutability": "payable"
    },
    {
      "type": "function",
      "name": "mint",
      "inputs": [
        {
          "name": "quantity_",
          "type": "uint256",
          "internalType": "uint256"
        },
        {
          "name": "recipient_",
          "type": "address",
          "internalType": "address"
        }
      ],
      "outputs": [],
      "stateMutability": "payable"
    },
    {
      "type": "function",
      "name": "mint",
      "inputs": [
        {
          "name": "quantity_",
          "type": "uint256",
          "internalType": "uint256"
        }
      ],
      "outputs": [],
      "stateMutability": "payable"
    },
    {
      "type": "function",
      "name": "mintPromotional",
      "inputs": [
        {
          "name": "recipient_",
          "type": "address",
          "internalType": "address"
        },
        {
          "name": "discount_",
          "type": "tuple",
          "internalType": "struct Datastructures.OrderPayment",
          "components": [
            {
              "name": "paymentType",
              "type": "uint8",
              "internalType": "enum Datastructures.PaymentType"
            },
            {
              "name": "amount",
              "type": "uint248",
              "internalType": "uint248"
            }
          ]
        },
        {
          "name": "auth_",
          "type": "tuple",
          "internalType": "struct Datastructures.AuthorizationSignature",
          "components": [
            {
              "name": "signature",
              "type": "tuple",
              "internalType": "struct Datastructures.Signature",
              "components": [
                {
                  "name": "v",
                  "type": "uint8",
                  "internalType": "uint8"
                },
                {
                  "name": "r",
                  "type": "bytes32",
                  "internalType": "bytes32"
                },
                {
                  "name": "s",
                  "type": "bytes32",
                  "internalType": "bytes32"
                }
              ]
            },
            {
              "name": "issuedAt",
              "type": "uint64",
              "internalType": "uint64"
            },
            {
              "name": "expiresAt",
              "type": "uint64",
              "internalType": "uint64"
            }
          ]
        },
        {
          "name": "permit_",
          "type": "bytes",
          "internalType": "bytes"
        }
      ],
      "outputs": [],
      "stateMutability": "payable"
    },
    {
      "type": "function",
      "name": "multicall",
      "inputs": [
        {
          "name": "data",
          "type": "bytes[]",
          "internalType": "bytes[]"
        }
      ],
      "outputs": [
        {
          "name": "results",
          "type": "bytes[]",
          "internalType": "bytes[]"
        }
      ],
      "stateMutability": "payable"
    },
    {
      "type": "function",
      "name": "removeLabel",
      "inputs": [
        {
          "name": "node_",
          "type": "bytes32",
          "internalType": "bytes32"
        },
        {
          "name": "label_",
          "type": "string",
          "internalType": "string"
        }
      ],
      "outputs": [],
      "stateMutability": "nonpayable"
    },
    {
      "type": "function",
      "name": "setMaxLength",
      "inputs": [
        {
          "name": "node_",
          "type": "bytes32",
          "internalType": "bytes32"
        },
        {
          "name": "maxLength_",
          "type": "uint8",
          "internalType": "uint8"
        }
      ],
      "outputs": [],
      "stateMutability": "nonpayable"
    },
    {
      "type": "function",
      "name": "setMinLength",
      "inputs": [
        {
          "name": "node_",
          "type": "bytes32",
          "internalType": "bytes32"
        },
        {
          "name": "minLength_",
          "type": "uint8",
          "internalType": "uint8"
        }
      ],
      "outputs": [],
      "stateMutability": "nonpayable"
    },
    {
      "type": "function",
      "name": "setPayoutAddress",
      "inputs": [
        {
          "name": "node_",
          "type": "bytes32",
          "internalType": "bytes32"
        },
        {
          "name": "payoutAddress_",
          "type": "address",
          "internalType": "address"
        }
      ],
      "outputs": [],
      "stateMutability": "nonpayable"
    },
    {
      "type": "function",
      "name": "setRestrictedMinter",
      "inputs": [
        {
          "name": "node_",
          "type": "bytes32",
          "internalType": "bytes32"
        },
        {
          "name": "minter_",
          "type": "address",
          "internalType": "address"
        },
        {
          "name": "restrictedMinter_",
          "type": "bool",
          "internalType": "bool"
        }
      ],
      "outputs": [],
      "stateMutability": "nonpayable"
    },
    {
      "type": "function",
      "name": "signatureType",
      "inputs": [],
      "outputs": [
        {
          "name": "",
          "type": "string",
          "internalType": "string"
        }
      ],
      "stateMutability": "pure"
    },
    {
      "type": "function",
      "name": "toggleRestrictedMinter",
      "inputs": [
        {
          "name": "node_",
          "type": "bytes32",
          "internalType": "bytes32"
        },
        {
          "name": "enable_",
          "type": "bool",
          "internalType": "bool"
        }
      ],
      "outputs": [],
      "stateMutability": "nonpayable"
    },
    {
      "type": "event",
      "name": "Initialized",
      "inputs": [
        {
          "name": "version",
          "type": "uint8",
          "indexed": false,
          "internalType": "uint8"
        }
      ],
      "anonymous": false
    },
    {
      "type": "event",
      "name": "LabelStatusUpdated",
      "inputs": [
        {
          "name": "node",
          "type": "bytes32",
          "indexed": true,
          "internalType": "bytes32"
        },
        {
          "name": "label",
          "type": "string",
          "indexed": false,
          "internalType": "string"
        },
        {
          "name": "status",
          "type": "uint8",
          "indexed": false,
          "internalType": "enum Datastructures.Status"
        }
      ],
      "anonymous": false
    },
    {
      "type": "event",
      "name": "SpookySRC_minted",
      "inputs": [
        {
          "name": "recipient",
          "type": "address",
          "indexed": true,
          "internalType": "address"
        },
        {
          "name": "quantity",
          "type": "uint256",
          "indexed": false,
          "internalType": "uint256"
        }
      ],
      "anonymous": false
    },
    {
      "type": "error",
      "name": "BasePaymentStorage_paymentNotInitialized",
      "inputs": [
        {
          "name": "paymentType_",
          "type": "uint8",
          "internalType": "enum Datastructures.PaymentType"
        }
      ]
    },
    {
      "type": "error",
      "name": "BasePayments_insufficientAllowance",
      "inputs": [
        {
          "name": "token",
          "type": "address",
          "internalType": "contract IERC20Upgradeable"
        },
        {
          "name": "paymentAmount",
          "type": "uint256",
          "internalType": "uint256"
        },
        {
          "name": "amount",
          "type": "uint256",
          "internalType": "uint256"
        }
      ]
    },
    {
      "type": "error",
      "name": "BasePayments_insufficientBalance",
      "inputs": [
        {
          "name": "token",
          "type": "address",
          "internalType": "contract IERC20Upgradeable"
        },
        {
          "name": "paymentAmount",
          "type": "uint256",
          "internalType": "uint256"
        },
        {
          "name": "amount",
          "type": "uint256",
          "internalType": "uint256"
        }
      ]
    },
    {
      "type": "error",
      "name": "BasePayments_transferFailed",
      "inputs": []
    },
    {
      "type": "error",
      "name": "InvalidPayload",
      "inputs": []
    },
    {
      "type": "error",
      "name": "InvalidSignature",
      "inputs": []
    },
    {
      "type": "error",
      "name": "PaymentProcessor_invalidPaymentType",
      "inputs": [
        {
          "name": "paymentType",
          "type": "uint8",
          "internalType": "enum Datastructures.PaymentType"
        }
      ]
    },
    {
      "type": "error",
      "name": "ReentrancyGuardDiamond_notCalledThroughMulticall",
      "inputs": []
    },
    {
      "type": "error",
      "name": "ReentrancyGuardDiamond_reentrantCall",
      "inputs": []
    },
    {
      "type": "error",
      "name": "SponsoredPayments_invalidPaymentType",
      "inputs": [
        {
          "name": "paymentType",
          "type": "uint8",
          "internalType": "enum Datastructures.PaymentType"
        }
      ]
    },
    {
      "type": "error",
      "name": "SpookySRC_usedVoucher",
      "inputs": []
    },
    {
      "type": "error",
      "name": "senderNotAuthorized",
      "inputs": [
        {
          "name": "sender",
          "type": "address",
          "internalType": "address"
        },
        {
          "name": "node",
          "type": "bytes32",
          "internalType": "bytes32"
        }
      ]
    },
    {
      "type": "error",
      "name": "sponsorShield_alreadySponsored",
      "inputs": []
    }
  ],
  "bytecode": {
    "object": "0x60e06040527f077ca7d9c8aebf4ca0f81610a8f9d6166b37fa76813f301d5ccb88609be9cc3960a0523480156200003557600080fd5b50604051620058ef380380620058ef83398101604081905262000058916200006f565b6001600160a01b0390911660805260c052620000ab565b600080604083850312156200008357600080fd5b82516001600160a01b03811681146200009b57600080fd5b6020939093015192949293505050565b60805160a05160c05161578f62000160600039600081816103da01528181610f3c015281816113ed01528181611bce01528181611c3f01526120e901526000818161031301526142870152600081816106b301528181610e1e01528181610fda01528181611c12015281816120130152818161217a01528181612546015281816125d601528181612744015281816127d601528181612cc901528181612d5901528181613db70152613e47015261578f6000f3fe60806040526004361061027d5760003560e01c8063916d7d7c1161014f578063bd6c846d116100c1578063db6f02811161007a578063db6f0281146107e7578063e00c78fb14610816578063ed24911d146103b3578063f2f94fc614610829578063f882e7a014610849578063fc21bc8b1461086957600080fd5b8063bd6c846d1461070a578063c69cf9a51461072a578063c9bc00fe1461074a578063cfef85851461076a578063d578e9b01461078a578063da3675ab146107b757600080fd5b8063a734f06e11610113578063a734f06e14610644578063ac9650d81461066c578063acb8cc491461068c578063ae8aee8e146106a1578063aec47618146106d5578063b1ae65a5146106f557600080fd5b8063916d7d7c146105be57806394bf804d146105de57806394e4823d146105f15780639bf2431114610611578063a0712d681461063157600080fd5b806359950726116101f357806376cb1dc5116101ac57806376cb1dc5146105125780637759bd3e14610527578063796f077b146105475780637ba6e1941461056957806385e1f4d0146105895780638f15b4141461059e57600080fd5b8063599507261461044d5780635b8576031461046d57806366195f171461048d57806372ca8b2c146104a257806373402cb4146104cf57806373c02519146104ff57600080fd5b8063287da27511610245578063287da27514610363578063300d60a4146103935780633644e515146103b357806351bfcdbd146103c857806352f7b2d9146103fc578063544fe4641461041f57600080fd5b8063061f67e814610282578063087ffac9146102bf5780630d5ceab6146102e15780631cba66f0146103015780632460008d14610343575b600080fd5b34801561028e57600080fd5b506102a261029d36600461434a565b610889565b6040516001600160a01b0390911681526020015b60405180910390f35b3480156102cb57600080fd5b506102df6102da366004614485565b6108f2565b005b3480156102ed57600080fd5b506102df6102fc3660046145a5565b61090a565b34801561030d57600080fd5b506103357f000000000000000000000000000000000000000000000000000000000000000081565b6040519081526020016102b6565b34801561034f57600080fd5b506102df61035e3660046145ff565b610a3a565b34801561036f57600080fd5b5061038361037e366004614645565b610afc565b60405190151581526020016102b6565b34801561039f57600080fd5b506102df6103ae366004614682565b610b74565b3480156103bf57600080fd5b50610335610b89565b3480156103d457600080fd5b506103357f000000000000000000000000000000000000000000000000000000000000000081565b34801561040857600080fd5b506103836104173660046146a5565b600192915050565b34801561042b57600080fd5b50610434610b98565b6040516001600160e01b031990911681526020016102b6565b34801561045957600080fd5b506102df610468366004614645565b610bc0565b34801561047957600080fd5b506102df6104883660046146d5565b610c20565b34801561049957600080fd5b50610434610c7b565b3480156104ae57600080fd5b506104c26104bd366004614707565b610ce8565b6040516102b6919061479f565b3480156104db57600080fd5b506104e76301e1338081565b6040516001600160401b0390911681526020016102b6565b6102df61050d3660046147ad565b610d36565b34801561051e57600080fd5b5061043461116a565b34801561053357600080fd5b506103836105423660046145ff565b611190565b34801561055357600080fd5b5061055c611217565b6040516102b69190614855565b34801561057557600080fd5b506102df610584366004614868565b611221565b34801561059557600080fd5b506104e7611260565b3480156105aa57600080fd5b506102df6105b93660046148f9565b611293565b3480156105ca57600080fd5b506103836105d9366004614981565b6113ab565b6102df6105ec366004614645565b6113b6565b3480156105fd57600080fd5b506104c261060c36600461499e565b6113d4565b34801561061d57600080fd5b506102df61062c3660046149d4565b611467565b6102df61063f36600461434a565b6114bb565b34801561065057600080fd5b506102a273eeeeeeeeeeeeeeeeeeeeeeeeeeeeeeeeeeeeeeee81565b61067f61067a366004614a00565b6114c8565b6040516102b69190614a74565b34801561069857600080fd5b5061055c6117a5565b3480156106ad57600080fd5b506102a27f000000000000000000000000000000000000000000000000000000000000000081565b3480156106e157600080fd5b506102df6106f0366004614ad6565b6117af565b34801561070157600080fd5b50610335611816565b34801561071657600080fd5b506102df610725366004614b0d565b611840565b34801561073657600080fd5b506102df610745366004614b49565b611960565b34801561075657600080fd5b506102df61076536600461434a565b6119f7565b34801561077657600080fd5b506102df610785366004614b7d565b611a54565b34801561079657600080fd5b506107aa6107a53660046146a5565b611b27565b6040516102b69190614bcb565b3480156107c357600080fd5b506107d76107d2366004614bd9565b611bad565b6040516102b69493929190614c40565b3480156107f357600080fd5b5060408051808201909152600681526522a4a81b989960d11b602082015261055c565b6102df610824366004614c85565b611cc0565b34801561083557600080fd5b506102df6108443660046149d4565b6122ca565b34801561085557600080fd5b506102df610864366004614d7a565b612325565b34801561087557600080fd5b506103836108843660046146a5565b61237d565b6000818152600460205260408120546001600160a01b0316806108ec5760405162461bcd60e51b81526020600482015260166024820152755061796f75742061646472657373206973207a65726f60501b60448201526064015b60405180910390fd5b92915050565b6109038585600086600087876123c4565b5050505050565b8260006109198282600361253b565b61093a57338260405163852f888560e01b81526004016108e3929190614da0565b600085815260016020526040812054905b8551811015610a31576000878152602081815260408083208584529091528120875187929089908590811061098257610982614db9565b602002602001015160405160200161099a9190614dcf565b60408051601f19818403018152918152815160209283012083529082019290925201600020805460ff191660018360048111156109d9576109d9614756565b02179055508660008051602061573a833981519152878381518110610a0057610a00614db9565b602002602001015187604051610a17929190614deb565b60405180910390a280610a2981614e23565b91505061094b565b50505050505050565b816000610a498282600361253b565b610a6a57338260405163852f888560e01b81526004016108e3929190614da0565b6000848152602081815260408083206001835281842054845282528083209051909291610a9991879101614dcf565b60405160208183030381529060405280519060200120815260200190815260200160002060006101000a81549060ff02191690558360008051602061573a833981519152846000604051610aee929190614deb565b60405180910390a250505050565b60008281526002602090815260408083208151606081018352905460ff808216835261010082048116948301949094526201000090049092161580159183019190915280610b6c575060008481526003602090815260408083206001600160a01b038716845290915290205460ff165b949350505050565b610903610b808661285c565b858585856108f2565b6000610b936128c4565b905090565b604051602001610ba790614e3c565b6040516020818303038152906040528051906020012081565b816000610bcf8282600361253b565b610bf057338260405163852f888560e01b81526004016108e3929190614da0565b505060009182526004602052604090912080546001600160a01b0319166001600160a01b03909216919091179055565b816000610c2f8282600361253b565b610c5057338260405163852f888560e01b81526004016108e3929190614da0565b50506000918252600260205260409091208054911515620100000262ff000019909216919091179055565b604051602001610ba7907f53706f6e736f725065726d697432417070726f76616c2875696e74382c61646481527f726573732c616464726573732c75696e743235362c75696e743235362c75696e60208201526a743235362c62797465732960a81b6040820152604b0190565b604080518082019091526000808252602082015260405162461bcd60e51b815260206004820152600f60248201526e139bdd081a5b5c1b195b595b9d1959608a1b60448201526064016108e3565b60008311610d995760405162461bcd60e51b815260206004820152602a60248201527f53706f6f6b795352433a207175616e74697479206d75737420626520677265616044820152690746572207468616e20360b41b60648201526084016108e3565b6040805180820190915260008082526020820152815115610e84576000806000610dc2856128dc565b919450925090506001836002811115610ddd57610ddd614756565b14610dea57610dea614e83565b856001600160a01b0316816001600160a01b031614610e0b57610e0b614e83565b610e1783838330612922565b610e4283837f0000000000000000000000000000000000000000000000000000000000000000612953565b6040518060400160405280846002811115610e5f57610e5f614756565b8152602001610e6e8985614eaf565b6001600160f81b03168152509350505050610eae565b604080518082019091528060028152602001610ea08634614eaf565b6001600160f81b0316905290505b6000846001600160401b03811115610ec857610ec8614378565b604051908082528060200260200182016040528015610efb57816020015b6060815260200190600190039081610ee65790505b50905060005b85811015610fd5576000610f13612a00565b9050604051602001610f2490614e3c565b604051602081830303815290604052805190602001207f0000000000000000000000000000000000000000000000000000000000000000828689604051602401610f719493929190614ec3565b604051602081830303815290604052906001600160e01b0319166020820180516001600160e01b038381831617835250505050838381518110610fb657610fb6614db9565b6020026020010181905250508080610fcd90614e23565b915050610f01565b5060007f00000000000000000000000000000000000000000000000000000000000000006001600160a01b03163460405160200161102b90716d756c746963616c6c2862797465735b5d2960701b815260120190565b60405160208183030381529060405280519060200120846040516024016110529190614a74565b60408051601f198184030181529181526020820180516001600160e01b03166001600160e01b03199094169390931790925290516110909190614dcf565b60006040518083038185875af1925050503d80600081146110cd576040519150601f19603f3d011682016040523d82523d6000602084013e6110d2565b606091505b505090508061111f5760405162461bcd60e51b815260206004820152601960248201527814dc1bdbdade54d490ce8819985a5b1959081d1bc81b5a5b9d603a1b60448201526064016108e3565b846001600160a01b03167fdfba524de92d73ae81cb858ed5ffa2d63e0151080f1beab0bcc9c22feb59bcbf8760405161115a91815260200190565b60405180910390a2505050505050565b604051716d756c746963616c6c2862797465735b5d2960701b6020820152603201610ba7565b60008281526002602090815260408083208151606081018352905460ff8082168084526101008304821695840195909552620100009091041615159181019190915283519091158015906111e75750815160ff1681105b15801561120e57506000826020015160ff1611801561120c5750816020015160ff1681115b155b95945050505050565b6060610b93612a6f565b611229612b11565b6112465760405163720ac81360e11b815260040160405180910390fd5b611255878787878787876123c4565b610a31868886612b23565b6000610b937f32b5c85a128d7f36d6f13b6529d32f429a20c4634b95df3425ffa523bef6d927546001600160401b031690565b600554610100900460ff16158080156112b35750600554600160ff909116105b806112cd5750303b1580156112cd575060055460ff166001145b6113305760405162461bcd60e51b815260206004820152602e60248201527f496e697469616c697a61626c653a20636f6e747261637420697320616c72656160448201526d191e481a5b9a5d1a585b1a5e995960921b60648201526084016108e3565b6005805460ff191660011790558015611353576005805461ff0019166101001790555b61135f85858585612b71565b8015610903576005805461ff0019169055604051600181527f7f26b83ff96e1f2b6a682f133852f6798a09c465da95921460cefb38474024989060200160405180910390a15050505050565b60006108ec82612bb6565b6113d0828260405180602001604052806000815250610d36565b5050565b604080518082019091526000808252602082015261143b7f000000000000000000000000000000000000000000000000000000000000000060405180604001604052806002815260200161616160f01b8152506301e133806001600160401b031685611bad565b602081018051919550879450925061145591508390614f05565b6001600160f81b031690525092915050565b8160006114768282600361253b565b61149757338260405163852f888560e01b81526004016108e3929190614da0565b5050600091825260026020526040909120805460ff191660ff909216919091179055565b6114c581336113b6565b50565b60606114d2612bf3565b6000341561153a576114e2612c45565b6001600160a01b031663d0e30db0346040518263ffffffff1660e01b81526004016000604051808303818588803b15801561151c57600080fd5b505af1158015611530573d6000803e3d6000fd5b5050505050600190505b826001600160401b0381111561155257611552614378565b60405190808252806020026020018201604052801561158557816020015b60608152602001906001900390816115705790505b50915060005b83811015611625576115f5308686848181106115a9576115a9614db9565b90506020028101906115bb9190614f37565b8080601f016020809104026020016040519081016040528093929190818152602001838380828437600092019190915250612c5192505050565b83828151811061160757611607614db9565b6020026020010181905250808061161d90614e23565b91505061158b565b5061162e612c76565b8080156116ac57506000611640612c45565b6040516370a0823160e01b81523060048201526001600160a01b0391909116906370a0823190602401602060405180830381865afa158015611686573d6000803e3d6000fd5b505050506040513d601f19601f820116820180604052508101906116aa9190614f84565b115b1561179c576116b9612c45565b6001600160a01b031663a9059cbb336116d0612c45565b6040516370a0823160e01b81523060048201526001600160a01b0391909116906370a0823190602401602060405180830381865afa158015611716573d6000803e3d6000fd5b505050506040513d601f19601f8201168201806040525081019061173a9190614f84565b6040518363ffffffff1660e01b8152600401611757929190614da0565b6020604051808303816000875af1158015611776573d6000803e3d6000fd5b505050506040513d601f19601f8201168201806040525081019061179a9190614f9d565b505b506108ec612c7e565b6060610b93612ca6565b8260006117be8282600361253b565b6117df57338260405163852f888560e01b81526004016108e3929190614da0565b505060009283526003602090815260408085206001600160a01b039490941685529290529120805460ff1916911515919091179055565b6000610b937fa6dabb6ee476315186829f1822ecc6bcee40bbfe141d56783694a4efa102232e5490565b81600061184f8282600361253b565b61187057338260405163852f888560e01b81526004016108e3929190614da0565b600084815260016020526040812054905b845181101561195857600086815260208181526040808320858452909152812086519091908790849081106118b8576118b8614db9565b60200260200101516040516020016118d09190614dcf565b60405160208183030381529060405280519060200120815260200190815260200160002060006101000a81549060ff02191690558560008051602061573a83398151915286838151811061192657611926614db9565b6020026020010151600060405161193e929190614deb565b60405180910390a28061195081614e23565b915050611881565b505050505050565b61196933612cc5565b6119b55760405162461bcd60e51b815260206004820152601960248201527f53706f6f6b795352433a206e6f7420617574686f72697a65640000000000000060448201526064016108e3565b60005b81518110156113d0576119e58282815181106119d6576119d6614db9565b60200260200101516003612ea9565b806119ef81614e23565b9150506119b8565b806000611a068282600361253b565b611a2757338260405163852f888560e01b81526004016108e3929190614da0565b60018060008581526020019081526020016000206000828254611a4a9190614fba565b9091555050505050565b826000611a638282600361253b565b611a8457338260405163852f888560e01b81526004016108e3929190614da0565b600085815260208181526040808320600183528184205484528252808320905186939192611ab491899101614dcf565b60408051601f19818403018152918152815160209283012083529082019290925201600020805460ff19166001836004811115611af357611af3614756565b02179055508460008051602061573a8339815191528585604051611b18929190614deb565b60405180910390a25050505050565b6000611b33838361237d565b611b7f5760405162461bcd60e51b815260206004820152601760248201527f4c6162656c206973206e6f74207265737472696374656400000000000000000060448201526064016108e3565b5060009182526020828152604080842060018352818520548552825280842092845291905290205460ff1690565b6000806000611bcc604080518082019091526000808252602082015290565b7f00000000000000000000000000000000000000000000000000000000000000008814611bfb57611bfb614e83565b60405163da3675ab60e01b81526001600160a01b037f0000000000000000000000000000000000000000000000000000000000000000169063da3675ab90611c6d907f0000000000000000000000000000000000000000000000000000000000000000908b908b908b90600401614fcd565b60a060405180830381865afa158015611c8a573d6000803e3d6000fd5b505050506040513d601f19601f82011682018060405250810190611cae9190615052565b929b919a509850909650945050505050565b611cc984612bb6565b15611ce757604051633c647c6560e11b815260040160405180910390fd5b600060405180608001604052806040518060400160405280886001600160a01b0316815260200187803603810190611d1f91906150a6565b905281526020858101516001600160401b03908116828401526040808801519091168184015260006060909301929092528551805191810151920151929350611d6a92849290612f9f565b611db1856001600160a01b031660009081527f02755f7f5d60087d84332ba6a711240d9fe2eae9336aa2416333d3bfe47bc38160205260409020805460ff19166001179055565b6000611dc5600161060c60208801886150e7565b90506000611dd96040870160208801615104565b6001600160f81b031682602001516001600160f81b03161115611e2157611e066040870160208801615104565b8260200151611e159190615121565b6001600160f81b031690505b600182516002811115611e3657611e36614756565b0361203c578015611ffb57835115611fb3576000806000611e56876128dc565b92509250925084600001516002811115611e7257611e72614756565b836002811115611e8457611e84614756565b14611ed15760405162461bcd60e51b815260206004820181905260248201527f53706f6f6b795352433a207061796d656e742074797065206d69736d6174636860448201526064016108e3565b600185516002811115611ee657611ee6614756565b14611f3d5760405162461bcd60e51b815260206004820152602160248201527f53706f6f6b795352433a206f6e6c79205553444320697320737570706f7274656044820152601960fa1b60648201526084016108e3565b83821015611f9d5760405162461bcd60e51b815260206004820152602760248201527f53706f6f6b795352433a20616d6f756e74206973206c657373207468616e20646044820152661a5cd8dbdd5b9d60ca1b60648201526084016108e3565b8451611fab90858330612922565b505050611ffb565b60405162461bcd60e51b815260206004820152601d60248201527f53706f6f6b795352433a206e6f207065726d69742070726f766964656400000060448201526064016108e3565b612037826000015183602001516001600160f81b03167f0000000000000000000000000000000000000000000000000000000000000000612953565b612094565b8034101561204c5761204c614e83565b60405162461bcd60e51b815260206004820152601a60248201527f53706f6f6b795352433a206e6f7420696d706c656d656e74656400000000000060448201526064016108e3565b604080516001808252818301909252600091816020015b60608152602001906001900390816120ab5790505090506040516020016120d190614e3c565b604051602081830303815290604052805190602001207f0000000000000000000000000000000000000000000000000000000000000000612110612a00565b858b6040516024016121259493929190614ec3565b604051602081830303815290604052906001600160e01b0319166020820180516001600160e01b0383818316178352505050508160008151811061216b5761216b614db9565b602002602001018190525060007f00000000000000000000000000000000000000000000000000000000000000006001600160a01b0316346040516020016121cb90716d756c746963616c6c2862797465735b5d2960701b815260120190565b60405160208183030381529060405280519060200120846040516024016121f29190614a74565b60408051601f198184030181529181526020820180516001600160e01b03166001600160e01b03199094169390931790925290516122309190614dcf565b60006040518083038185875af1925050503d806000811461226d576040519150601f19603f3d011682016040523d82523d6000602084013e612272565b606091505b50509050806122bf5760405162461bcd60e51b815260206004820152601960248201527814dc1bdbdade54d490ce8819985a5b1959081d1bc81b5a5b9d603a1b60448201526064016108e3565b505050505050505050565b8160006122d98282600361253b565b6122fa57338260405163852f888560e01b81526004016108e3929190614da0565b5050600091825260026020526040909120805460ff9092166101000261ff0019909216919091179055565b61232d612b11565b61234a5760405163720ac81360e11b815260040160405180910390fd5b6123616123568861285c565b8787878787876123c4565b610a318688600281111561237757612377614756565b86612fca565b60008060008481526020818152604080832060018352818420548452825280832086845290915290205460ff1660048111156123bb576123bb614756565b14159392505050565b6001600160a01b0387166123da576123da614e83565b828410156123ea576123ea614e83565b60208101516040808301516060840151915163d505accf60e01b81526001600160a01b038a81166004830152306024830152604482018990526064820187905260009390931a6084820181905260a4820185905260c4820183905291928b169063d505accf9060e401600060405180830381600087803b15801561246d57600080fd5b505af1158015612481573d6000803e3d6000fd5b50505050600086111561252f576040516323b872dd60e01b81526001600160a01b038a81166004830152898116602483015260448201889052600091908c16906323b872dd906064016020604051808303816000875af11580156124e9573d6000803e3d6000fd5b505050506040513d601f19601f8201168201806040525081019061250d9190614f9d565b90508061252d57604051630c75b81360e01b815260040160405180910390fd5b505b50505050505050505050565b6000838103612724577f00000000000000000000000000000000000000000000000000000000000000006001600160a01b031663bf7e214f6040518163ffffffff1660e01b8152600401602060405180830381865afa1580156125a2573d6000803e3d6000fd5b505050506040513d601f19601f820116820180604052508101906125c69190615141565b6001600160a01b031663c33888307f00000000000000000000000000000000000000000000000000000000000000006001600160a01b031663bf7e214f6040518163ffffffff1660e01b8152600401602060405180830381865afa158015612632573d6000803e3d6000fd5b505050506040513d601f19601f820116820180604052508101906126569190615141565b6001600160a01b031663d6c0f5a56040518163ffffffff1660e01b8152600401602060405180830381865afa158015612693573d6000803e3d6000fd5b505050506040513d601f19601f820116820180604052508101906126b79190614f84565b6040516001600160e01b031960e084901b1681526004810191909152336024820152604401602060405180830381865afa1580156126f9573d6000803e3d6000fd5b505050506040513d601f19601f8201168201806040525081019061271d9190614f9d565b9050612855565b6040516302571be360e01b81526004810185905233906001600160a01b037f000000000000000000000000000000000000000000000000000000000000000016906302571be390602401602060405180830381865afa15801561278b573d6000803e3d6000fd5b505050506040513d601f19601f820116820180604052508101906127af9190615141565b6001600160a01b0316148061285257506040516327ff736560e01b81526001600160a01b037f000000000000000000000000000000000000000000000000000000000000000016906327ff73659061281190879033908890889060040161515e565b602060405180830381865afa15801561282e573d6000803e3d6000fd5b505050506040513d601f19601f820116820180604052508101906128529190614f9d565b90505b9392505050565b6000600182600281111561287257612872614756565b03612881576108ec6001612ffc565b600282600281111561289557612895614756565b036128a4576108ec6002612ffc565b81604051631783e5c760e01b81526004016108e3919061519b565b919050565b60006000805160206156fa8339815191525b54919050565b600080600080600080600080888060200190518101906128fc91906151a9565b945094509450945094506129138585858585610b74565b50929790965090945092505050565b61294d612930856001613081565b848484600289600281111561294757612947614756565b1461310c565b50505050565b600283600281111561296757612967614756565b036129875782604051631783e5c760e01b81526004016108e3919061519b565b6129908361285c565b6001600160a01b031663095ea7b382846040518363ffffffff1660e01b81526004016129bd929190614da0565b6020604051808303816000875af11580156129dc573d6000803e3d6000fd5b505050506040513d601f19601f8201168201806040525081019061294d9190614f9d565b60606000424333604051602001612a3c93929190928352602083019190915260601b6bffffffffffffffffffffffff1916604082015260540190565b604051602081830303815290604052805190602001209050612a69612a646000801b83613415565b61358f565b91505090565b60606000805160206156fa8339815191526001018054612a8e9061525d565b80601f0160208091040260200160405190810160405280929190818152602001828054612aba9061525d565b8015612b075780601f10612adc57610100808354040283529160200191612b07565b820191906000526020600020905b815481529060010190602001808311612aea57829003601f168201915b5050505050905090565b60006002612b1d613650565b14905090565b612b2d8382613677565b7fd189612e02696852a1566ca8b4c5d435f649343dc05913de941d276caa0daf8880546001600160a01b0319166001600160a01b038416179055505050565b505050565b600554610100900460ff16612b985760405162461bcd60e51b81526004016108e390615297565b612ba0613718565b612baa828261373f565b61294d84844630613799565b6001600160a01b031660009081527f02755f7f5d60087d84332ba6a711240d9fe2eae9336aa2416333d3bfe47bc381602052604090205460ff1690565b6002612bfd613650565b03612c1b576040516369c9162d60e11b815260040160405180910390fd5b612c4360027efb1582097edca5730fdb99215e4455bb86a33d4dfb2e772de67f816dc82a6755565b565b6000610b936002612ffc565b606061285583836040518060600160405280602781526020016156d3602791396137cc565b612c43613844565b612c4360017efb1582097edca5730fdb99215e4455bb86a33d4dfb2e772de67f816dc82a6755565b60606000805160206156fa8339815191526002018054612a8e9061525d565b60007f00000000000000000000000000000000000000000000000000000000000000006001600160a01b031663bf7e214f6040518163ffffffff1660e01b8152600401602060405180830381865afa158015612d25573d6000803e3d6000fd5b505050506040513d601f19601f82011682018060405250810190612d499190615141565b6001600160a01b031663c33888307f00000000000000000000000000000000000000000000000000000000000000006001600160a01b031663bf7e214f6040518163ffffffff1660e01b8152600401602060405180830381865afa158015612db5573d6000803e3d6000fd5b505050506040513d601f19601f82011682018060405250810190612dd99190615141565b6001600160a01b031663397afedd6040518163ffffffff1660e01b8152600401602060405180830381865afa158015612e16573d6000803e3d6000fd5b505050506040513d601f19601f82011682018060405250810190612e3a9190614f84565b6040516001600160e01b031960e084901b16815260048101919091526001600160a01b0385166024820152604401602060405180830381865afa158015612e85573d6000803e3d6000fd5b505050506040513d601f19601f820116820180604052508101906108ec9190614f9d565b6040517fa6dabb6ee476315186829f1822ecc6bcee40bbfe141d56783694a4efa102232b90600090612edf908590602001614dcf565b60405160208183030381529060405280519060200120905060008260020160008381526020019081526020016000208054612f199061525d565b90501115612f605760405162461bcd60e51b815260206004820152601460248201527351756575653a206475706c6963617465206b657960601b60448201526064016108e3565b60008181526002830160205260409020612f7a8582615328565b50600382018054906000612f8d83614e23565b909155506109039050600084836138b7565b61294d84604051602001612fb391906153e7565b604051602081830303815290604052848484613a9a565b612fd48382613677565b612b6c827fd189612e02696852a1566ca8b4c5d435f649343dc05913de941d276caa0daf8655565b6000807f9b42dd35ee762021d9267d3774e589b43ed395f5d79bdeeea3ebbf9e16c801f0600084600281111561303457613034614756565b600281111561304557613045614756565b81526020810191909152604001600020546001600160a01b03169050806108ec578260405163271bff1560e01b81526004016108e3919061519b565b6000600183600281111561309757613097614756565b036130ad576130a66001612ffc565b90506108ec565b60028360028111156130c1576130c1614756565b036130f15781156130d6576130a66002612ffc565b5073eeeeeeeeeeeeeeeeeeeeeeeeeeeeeeeeeeeeeeee6108ec565b826040516376a8525f60e01b81526004016108e3919061519b565b60008115613118573093505b6040516370a0823160e01b81526001600160a01b0385811660048301528691908816906370a0823190602401602060405180830381865afa158015613161573d6000803e3d6000fd5b505050506040513d601f19601f820116820180604052508101906131859190614f84565b91508110156131c057604051633503e49160e21b81526001600160a01b038716600482015260248101869052604481018290526064016108e3565b6001600160a01b038416301480159061324c5750604051636eb1769f60e11b81526001600160a01b03858116600483015230602483015286919088169063dd62ed3e90604401602060405180830381865afa158015613223573d6000803e3d6000fd5b505050506040513d601f19601f820116820180604052508101906132479190614f84565b915081105b15613283576040516312cda4af60e01b81526001600160a01b038716600482015260248101869052604481018290526064016108e3565b811561330957613291612b11565b6132ae5760405163720ac81360e11b815260040160405180910390fd5b604051632e1a7d4d60e01b8152600481018690526001600160a01b03871690632e1a7d4d90602401600060405180830381600087803b1580156132f057600080fd5b505af1158015613304573d6000803e3d6000fd5b505050505b811561339a576001600160a01b0383163014613395576000836001600160a01b03168660405160006040518083038185875af1925050503d806000811461336c576040519150601f19603f3d011682016040523d82523d6000602084013e613371565b606091505b505090508061339357604051630c75b81360e01b815260040160405180910390fd5b505b611958565b6040516323b872dd60e01b81526001600160a01b0385811660048301528481166024830152604482018790528716906323b872dd906064016020604051808303816000875af11580156133f1573d6000803e3d6000fd5b505050506040513d601f19601f82011682018060405250810190610a319190614f9d565b7fa6dabb6ee476315186829f1822ecc6bcee40bbfe141d56783694a4efa1022331546000907fa6dabb6ee476315186829f1822ecc6bcee40bbfe141d56783694a4efa102232b906134985760405162461bcd60e51b815260206004820152600d60248201526c5472656520697320656d70747960981b60448201526064016108e3565b60008481526004820160205260408120906134b282613b62565b60408051602081018990529081018790526060016040516020818303038152906040528051906020012060001c6134e99190615441565b905060006134f78383613b6c565b600081815260048601602052604081209192509061351490613b62565b11156135615760006135268288613415565b6000838152600487016020526040902090915061354290613b62565b600003613555576135538483613b78565b505b94506108ec9350505050565b61356b8382613b78565b5060068401805490600061357e83615455565b9190505550809450505050506108ec565b60008181527fa6dabb6ee476315186829f1822ecc6bcee40bbfe141d56783694a4efa102232d602052604090208054606091906135cb9061525d565b80601f01602080910402602001604051908101604052809291908181526020018280546135f79061525d565b80156136445780601f1061361957610100808354040283529160200191613644565b820191906000526020600020905b81548152906001019060200180831161362757829003601f168201915b50505050509050919050565b60007efb1582097edca5730fdb99215e4455bb86a33d4dfb2e772de67f816dc82a676128d6565b6002613681613b84565b0361369f57604051638acac63560e01b815260040160405180910390fd5b6136b6600260008051602061571a83398151915255565b7fd189612e02696852a1566ca8b4c5d435f649343dc05913de941d276caa0daf8580546001600160a01b0319166001600160a01b0384161790556113d0817fd189612e02696852a1566ca8b4c5d435f649343dc05913de941d276caa0daf8755565b600554610100900460ff16612c435760405162461bcd60e51b81526004016108e390615297565b600554610100900460ff166137665760405162461bcd60e51b81526004016108e390615297565b61376e613718565b6137788282613b9a565b61378182613bd7565b613789613718565b613791613c09565b6113d0613c38565b600554610100900460ff166137c05760405162461bcd60e51b81526004016108e390615297565b61294d84848484613c67565b6060600080856001600160a01b0316856040516137e99190614dcf565b600060405180830381855af49150503d8060008114613824576040519150601f19603f3d011682016040523d82523d6000602084013e613829565b606091505b509150915061383a86838387613c9a565b9695505050505050565b600261384e613b84565b03612c435761386a600160008051602061571a83398151915255565b612c4360007fd189612e02696852a1566ca8b4c5d435f649343dc05913de941d276caa0daf868190557fd189612e02696852a1566ca8b4c5d435f649343dc05913de941d276caa0daf8755565b60008381527fa6dabb6ee476315186829f1822ecc6bcee40bbfe141d56783694a4efa102232f602052604081207fa6dabb6ee476315186829f1822ecc6bcee40bbfe141d56783694a4efa102232b908561393657613916856001614fba565b613921906019615550565b82600601541061393657600092505050612855565b8415613a5057601961394782613b62565b10156139b55760008661395983613b62565b60408051602081019390935282015242606082015260800160408051601f19818403018152919052805160209091012090506139958282613d13565b506139ab816139a560018961555c565b876138b7565b9350505050612855565b60005b6019811015613a4a576000878152600584016020526040812054906139dd8483613b6c565b905060006139f6826139f060018c61555c565b8a6138b7565b90508015613a0d5760019650505050505050612855565b6019613a1a846001614fba565b613a249190615441565b60008b815260058801602052604090205583613a3f81614e23565b9450505050506139b8565b50613a8e565b6019613a5b82613b62565b1015613a8e57613a6b8185613d13565b50600682018054906000613a7e83614e23565b9190505550600192505050612855565b50600095945050505050565b613aa384613d1f565b613ac057604051637c6953f960e01b815260040160405180910390fd5b60006001613acd86613d64565b6040805160008152602081018083529290925260ff871690820152606081018590526080810184905260a0016020604051602081039080840390855afa158015613b1b573d6000803e3d6000fd5b5050604051601f1901519150506001600160a01b0381161580613b445750613b4281613db3565b155b1561090357604051638baa579f60e01b815260040160405180910390fd5b60006108ec825490565b60006128558383613f04565b60006128558383613f2e565b600060008051602061571a8339815191526128d6565b600554610100900460ff16613bc15760405162461bcd60e51b81526004016108e390615297565b613bcc600183614028565b6113d0600282614028565b600554610100900460ff16613bfe5760405162461bcd60e51b81526004016108e390615297565b6114c5600182614028565b600554610100900460ff16613c305760405162461bcd60e51b81526004016108e390615297565b612c43612c7e565b600554610100900460ff16613c5f5760405162461bcd60e51b81526004016108e390615297565b612c436140a5565b600554610100900460ff16613c8e5760405162461bcd60e51b81526004016108e390615297565b61294d848484846140bc565b60608315613d09578251600003613d02576001600160a01b0385163b613d025760405162461bcd60e51b815260206004820152601d60248201527f416464726573733a2063616c6c20746f206e6f6e2d636f6e747261637400000060448201526064016108e3565b5081610b6c565b610b6c83836141d8565b60006128558383614202565b60008082806020019051810190613d36919061556f565b905080604001516001600160401b0316421080156128555750602001516001600160401b0316421192915050565b6000613d6e6128c4565b613d7783614251565b60405161190160f01b6020820152602281019290925260428201526062015b604051602081830303815290604052805190602001209050919050565b60007f00000000000000000000000000000000000000000000000000000000000000006001600160a01b031663bf7e214f6040518163ffffffff1660e01b8152600401602060405180830381865afa158015613e13573d6000803e3d6000fd5b505050506040513d601f19601f82011682018060405250810190613e379190615141565b6001600160a01b031663c33888307f00000000000000000000000000000000000000000000000000000000000000006001600160a01b031663bf7e214f6040518163ffffffff1660e01b8152600401602060405180830381865afa158015613ea3573d6000803e3d6000fd5b505050506040513d601f19601f82011682018060405250810190613ec79190615141565b6001600160a01b031663b0b3fba96040518163ffffffff1660e01b8152600401602060405180830381865afa158015612e16573d6000803e3d6000fd5b6000826000018281548110613f1b57613f1b614db9565b9060005260206000200154905092915050565b60008181526001830160205260408120548015614017576000613f5260018361555c565b8554909150600090613f669060019061555c565b9050818114613fcb576000866000018281548110613f8657613f86614db9565b9060005260206000200154905080876000018481548110613fa957613fa9614db9565b6000918252602080832090910192909255918252600188019052604090208390555b8554869080613fdc57613fdc615620565b6001900381819060005260206000200160009055905585600101600086815260200190815260200160002060009055600193505050506108ec565b60009150506108ec565b5092915050565b807f9b42dd35ee762021d9267d3774e589b43ed395f5d79bdeeea3ebbf9e16c801f0600084600281111561405e5761405e614756565b600281111561406f5761406f614756565b815260200190815260200160002060006101000a8154816001600160a01b0302191690836001600160a01b031602179055505050565b612c43600160008051602061571a83398151915255565b6000805160206156fa8339815191527f32b5c85a128d7f36d6f13b6529d32f429a20c4634b95df3425ffa523bef6d9256140f68682615328565b50600281016141058582615328565b5060038101805467ffffffffffffffff19166001600160401b0385161790556040517f2010028ec63295361a00945794d4fce5b1046c419f60af448db7aaeb91e918f890614157906001840190615636565b6040518091039020826002016040516141709190615636565b60408051918290038220600386015460208401959095529082019290925260608101919091526001600160401b0390911660808201526001600160a01b03831660a082015260c00160408051601f198184030181529190528051602090910120905550505050565b8151156141e85781518083602001fd5b8060405162461bcd60e51b81526004016108e39190614855565b6000818152600183016020526040812054614249575081546001818101845560008481526020808220909301849055845484825282860190935260409020919091556108ec565b5060006108ec565b60008082806020019051810190614268919061556f565b606081015190915061428557805161427f90614308565b60608201525b7f00000000000000000000000000000000000000000000000000000000000000008160600151826020015183604001516040516020016142ea949392919093845260208401929092526001600160401b03908116604084015216606082015260800190565b60405160208183030381529060405280519060200120915050919050565b6000816000015161431c836020015161432d565b604051602001613d96929190614da0565b600081600001518260200151604051602001613d969291906156ac565b60006020828403121561435c57600080fd5b5035919050565b6001600160a01b03811681146114c557600080fd5b634e487b7160e01b600052604160045260246000fd5b604051606081016001600160401b03811182821017156143b0576143b0614378565b60405290565b604080519081016001600160401b03811182821017156143b0576143b0614378565b604051601f8201601f191681016001600160401b038111828210171561440057614400614378565b604052919050565b60006001600160401b0382111561442157614421614378565b50601f01601f191660200190565b600082601f83011261444057600080fd5b813561445361444e82614408565b6143d8565b81815284602083860101111561446857600080fd5b816020850160208301376000918101602001919091529392505050565b600080600080600060a0868803121561449d57600080fd5b85356144a881614363565b945060208601356144b881614363565b9350604086013592506060860135915060808601356001600160401b038111156144e157600080fd5b6144ed8882890161442f565b9150509295509295909350565b600082601f83011261450b57600080fd5b813560206001600160401b038083111561452757614527614378565b8260051b6145368382016143d8565b938452858101830193838101908886111561455057600080fd5b84880192505b8583101561458c5782358481111561456e5760008081fd5b61457c8a87838c010161442f565b8352509184019190840190614556565b98975050505050505050565b600581106114c557600080fd5b6000806000606084860312156145ba57600080fd5b8335925060208401356001600160401b038111156145d757600080fd5b6145e3868287016144fa565b92505060408401356145f481614598565b809150509250925092565b6000806040838503121561461257600080fd5b8235915060208301356001600160401b0381111561462f57600080fd5b61463b8582860161442f565b9150509250929050565b6000806040838503121561465857600080fd5b82359150602083013561466a81614363565b809150509250929050565b600381106114c557600080fd5b600080600080600060a0868803121561469a57600080fd5b85356144a881614675565b600080604083850312156146b857600080fd5b50508035926020909101359150565b80151581146114c557600080fd5b600080604083850312156146e857600080fd5b82359150602083013561466a816146c7565b600481106114c557600080fd5b60008060006060848603121561471c57600080fd5b8335925060208401356001600160401b0381111561473957600080fd5b6147458682870161442f565b92505060408401356145f4816146fa565b634e487b7160e01b600052602160045260246000fd5b6003811061477c5761477c614756565b9052565b61478b82825161476c565b6020908101516001600160f81b0316910152565b604081016108ec8284614780565b6000806000606084860312156147c257600080fd5b8335925060208401356147d481614363565b915060408401356001600160401b038111156147ef57600080fd5b6147fb8682870161442f565b9150509250925092565b60005b83811015614820578181015183820152602001614808565b50506000910152565b60008151808452614841816020860160208601614805565b601f01601f19169290920160200192915050565b6020815260006128556020830184614829565b600080600080600080600060e0888a03121561488357600080fd5b873561488e81614363565b9650602088013561489e81614363565b955060408801356148ae81614363565b9450606088013593506080880135925060a0880135915060c08801356001600160401b038111156148de57600080fd5b6148ea8a828b0161442f565b91505092959891949750929550565b6000806000806080858703121561490f57600080fd5b84356001600160401b038082111561492657600080fd5b6149328883890161442f565b9550602087013591508082111561494857600080fd5b506149558782880161442f565b935050604085013561496681614363565b9150606085013561497681614363565b939692955090935050565b60006020828403121561499357600080fd5b813561285581614363565b600080604083850312156149b157600080fd5b82359150602083013561466a81614675565b803560ff811681146128bf57600080fd5b600080604083850312156149e757600080fd5b823591506149f7602084016149c3565b90509250929050565b60008060208385031215614a1357600080fd5b82356001600160401b0380821115614a2a57600080fd5b818501915085601f830112614a3e57600080fd5b813581811115614a4d57600080fd5b8660208260051b8501011115614a6257600080fd5b60209290920196919550909350505050565b6000602080830181845280855180835260408601915060408160051b870101925083870160005b82811015614ac957603f19888603018452614ab7858351614829565b94509285019290850190600101614a9b565b5092979650505050505050565b600080600060608486031215614aeb57600080fd5b833592506020840135614afd81614363565b915060408401356145f4816146c7565b60008060408385031215614b2057600080fd5b8235915060208301356001600160401b03811115614b3d57600080fd5b61463b858286016144fa565b600060208284031215614b5b57600080fd5b81356001600160401b03811115614b7157600080fd5b610b6c848285016144fa565b600080600060608486031215614b9257600080fd5b8335925060208401356001600160401b03811115614baf57600080fd5b6145e38682870161442f565b6005811061477c5761477c614756565b602081016108ec8284614bbb565b60008060008060808587031215614bef57600080fd5b8435935060208501356001600160401b03811115614c0c57600080fd5b614c188782880161442f565b93505060408501359150606085013561497681614675565b600481106114c5576114c5614756565b60a08101614c4e8287614bbb565b614c5785614c30565b84602083015283604083015261120e6060830184614780565b6001600160401b03811681146114c557600080fd5b600080600080848603610120811215614c9d57600080fd5b8535614ca881614363565b94506040601f1982011215614cbc57600080fd5b602086019350605f190160a0811215614cd457600080fd5b614cdc61438e565b6060821215614cea57600080fd5b614cf261438e565b9150614d00606088016149c3565b82526080870135602083015260a0870135604083015290815260c086013590614d2882614c70565b81602082015260e08701359150614d3e82614c70565b604081019190915291506101008501356001600160401b03811115614d6257600080fd5b614d6e8782880161442f565b91505092959194509250565b600080600080600080600060e0888a031215614d9557600080fd5b873561488e81614675565b6001600160a01b03929092168252602082015260400190565b634e487b7160e01b600052603260045260246000fd5b60008251614de1818460208701614805565b9190910192915050565b604081526000614dfe6040830185614829565b90506128556020830184614bbb565b634e487b7160e01b600052601160045260246000fd5b600060018201614e3557614e35614e0d565b5060010190565b7f6d696e74537562646f6d61696e28627974657333322c737472696e672c2875698152746e74382c75696e74323438292c616464726573732960581b602082015260350190565b634e487b7160e01b600052600160045260246000fd5b634e487b7160e01b600052601260045260246000fd5b600082614ebe57614ebe614e99565b500490565b84815260a060208201526000614edc60a0830186614829565b9050614eeb6040830185614780565b6001600160a01b0392909216608091909101529392505050565b6001600160f81b03828116828216818102831692918115828504821417614f2e57614f2e614e0d565b50505092915050565b6000808335601e19843603018112614f4e57600080fd5b8301803591506001600160401b03821115614f6857600080fd5b602001915036819003821315614f7d57600080fd5b9250929050565b600060208284031215614f9657600080fd5b5051919050565b600060208284031215614faf57600080fd5b8151612855816146c7565b808201808211156108ec576108ec614e0d565b848152608060208201526000614fe66080830186614829565b905083604083015261120e606083018461476c565b6001600160f81b03811681146114c557600080fd5b60006040828403121561502257600080fd5b61502a6143b6565b9050815161503781614675565b8152602082015161504781614ffb565b602082015292915050565b60008060008060a0858703121561506857600080fd5b845161507381614598565b6020860151909450615084816146fa565b6040860151909350915061509b8660608701615010565b905092959194509250565b6000604082840312156150b857600080fd5b6150c06143b6565b82356150cb81614675565b815260208301356150db81614ffb565b60208201529392505050565b6000602082840312156150f957600080fd5b813561285581614675565b60006020828403121561511657600080fd5b813561285581614ffb565b6001600160f81b0382811682821603908082111561402157614021614e0d565b60006020828403121561515357600080fd5b815161285581614363565b8481526001600160a01b03841660208201526080810161517d84614c30565b83604083015261518c83614c30565b82606083015295945050505050565b602081016108ec828461476c565b600080600080600060a086880312156151c157600080fd5b85516151cc81614675565b60208701519095506151dd81614363565b80945050604086015192506060860151915060808601516001600160401b0381111561520857600080fd5b8601601f8101881361521957600080fd5b805161522761444e82614408565b81815289602083850101111561523c57600080fd5b61524d826020830160208601614805565b8093505050509295509295909350565b600181811c9082168061527157607f821691505b60208210810361529157634e487b7160e01b600052602260045260246000fd5b50919050565b6020808252602b908201527f496e697469616c697a61626c653a20636f6e7472616374206973206e6f74206960408201526a6e697469616c697a696e6760a81b606082015260800190565b601f821115612b6c57600081815260208120601f850160051c810160208610156153095750805b601f850160051c820191505b8181101561195857828155600101615315565b81516001600160401b0381111561534157615341614378565b6153558161534f845461525d565b846152e2565b602080601f83116001811461538a57600084156153725750858301515b600019600386901b1c1916600185901b178555611958565b600085815260208120601f198616915b828110156153b95788860151825594840194600190910190840161539a565b50858210156153d75787850151600019600388901b60f8161c191681555b5050505050600190811b01905550565b815180516001600160a01b0316825260209081015160c083019161540d90840182614780565b5060208301516001600160401b0380821660608501528060408601511660808501525050606083015160a083015292915050565b60008261545057615450614e99565b500690565b60008161546457615464614e0d565b506000190190565b600181815b808511156154a757816000190482111561548d5761548d614e0d565b8085161561549a57918102915b93841c9390800290615471565b509250929050565b6000826154be575060016108ec565b816154cb575060006108ec565b81600181146154e157600281146154eb57615507565b60019150506108ec565b60ff8411156154fc576154fc614e0d565b50506001821b6108ec565b5060208310610133831016604e8410600b841016171561552a575081810a6108ec565b615534838361546c565b806000190482111561554857615548614e0d565b029392505050565b600061285583836154af565b818103818111156108ec576108ec614e0d565b600081830360c081121561558257600080fd5b604051608081018181106001600160401b03821117156155a4576155a4614378565b60405260608212156155b557600080fd5b6155bd6143b6565b915083516155ca81614363565b82526155d98560208601615010565b60208301529081526060830151906155f082614c70565b8160208201526080840151915061560682614c70565b604081019190915260a09290920151606083015250919050565b634e487b7160e01b600052603160045260246000fd5b60008083546156448161525d565b6001828116801561565c5760018114615671576156a0565b60ff19841687528215158302870194506156a0565b8760005260208060002060005b858110156156975781548a82015290840190820161567e565b50505082870194505b50929695505050505050565b604081016156ba828561476c565b6001600160f81b03929092166020919091015291905056fe416464726573733a206c6f772d6c6576656c2064656c65676174652063616c6c206661696c656432b5c85a128d7f36d6f13b6529d32f429a20c4634b95df3425ffa523bef6d924d189612e02696852a1566ca8b4c5d435f649343dc05913de941d276caa0daf8474884ad9a98194d5144338f46e6316a366099419ee43be6edd2da4c4892e409ba26469706673582212208d9c0134d932731718d767a637d9c0a70909937a463218ad4f43425ba1d1997f64736f6c63430008120033",
    "linkReferences": {}
  },
  "methodIdentifiers": {
    "BASE_REGISTRATION_DURATION()": "73402cb4",
    "CHAIN_ID()": "85e1f4d0",
    "DOMAIN_NAME()": "796f077b",
    "DOMAIN_SEPARATOR()": "3644e515",
    "DOMAIN_VERSION()": "acb8cc49",
    "ETH_ADDRESS()": "a734f06e",
    "MINT_SELECTOR()": "544fe464",
    "MULTICALL_SELECTOR()": "76cb1dc5",
    "NODE()": "51bfcdbd",
    "Permit2Approval(address,address,uint256,uint256,bytes)": "087ffac9",
    "Permit2Approval(uint8,address,uint256,uint256,bytes)": "300d60a4",
    "SP2A_SELECTOR()": "66195f17",
    "SponsorPermit2Approval(address,address,address,uint256,uint256,uint256,bytes)": "7ba6e194",
    "SponsorPermit2Approval(uint8,address,address,uint256,uint256,uint256,bytes)": "f882e7a0",
    "THREE_DNS_REGCONTROL()": "ae8aee8e",
    "TYPED_DATA_SIGNATURE_TYPEHASH()": "1cba66f0",
    "addLabel(bytes32,string,uint8)": "cfef8585",
    "addSet(string[])": "c69cf9a5",
    "bulkAddLabels(bytes32,string[],uint8)": "0d5ceab6",
    "bulkRemoveLabels(bytes32,string[])": "bd6c846d",
    "clearLabels(bytes32)": "c9bc00fe",
    "getActionPremium(bytes32,string,uint8)": "72ca8b2c",
    "getDomainSeparator()": "ed24911d",
    "getLabelCount()": "b1ae65a5",
    "getPayoutAddress(bytes32)": "061f67e8",
    "getQuote(uint256,uint8)": "94e4823d",
    "getRestrictedStatus(bytes32,bytes32)": "d578e9b0",
    "getSubdomainQuote(bytes32,string,uint256,uint8)": "da3675ab",
    "hasClaimedVoucher(address)": "916d7d7c",
    "initialize(string,string,address,address)": "8f15b414",
    "isRestrictedLabel(bytes32,bytes32)": "fc21bc8b",
    "isValidDuration(bytes32,uint256)": "52f7b2d9",
    "isValidLabel(bytes32,string)": "7759bd3e",
    "isValidMinter(bytes32,address)": "287da275",
    "mint(uint256)": "a0712d68",
    "mint(uint256,address)": "94bf804d",
    "mint(uint256,address,bytes)": "73c02519",
    "mintPromotional(address,(uint8,uint248),((uint8,bytes32,bytes32),uint64,uint64),bytes)": "e00c78fb",
    "multicall(bytes[])": "ac9650d8",
    "removeLabel(bytes32,string)": "2460008d",
    "setMaxLength(bytes32,uint8)": "f2f94fc6",
    "setMinLength(bytes32,uint8)": "9bf24311",
    "setPayoutAddress(bytes32,address)": "59950726",
    "setRestrictedMinter(bytes32,address,bool)": "aec47618",
    "signatureType()": "db6f0281",
    "toggleRestrictedMinter(bytes32,bool)": "5b857603"
  },
  "id": 157
}